{
  "_format": "hh-sol-artifact-1",
  "contractName": "TokenPaymaster",
  "sourceName": "contracts/samples/TokenPaymaster.sol",
  "abi": [
    {
      "inputs": [
        {
          "internalType": "address",
          "name": "accountFactory",
          "type": "address"
        },
        {
          "internalType": "string",
          "name": "_symbol",
          "type": "string"
        },
        {
          "internalType": "contract IEntryPoint",
          "name": "_entryPoint",
          "type": "address"
        },
        {
          "internalType": "uint256",
          "name": "_level0Rate",
          "type": "uint256"
        },
        {
          "internalType": "uint256",
          "name": "_level1Rate",
          "type": "uint256"
        },
        {
          "internalType": "uint256",
          "name": "_level2Rate",
          "type": "uint256"
        }
      ],
      "stateMutability": "nonpayable",
      "type": "constructor"
    },
    {
      "anonymous": false,
      "inputs": [
        {
          "indexed": true,
          "internalType": "address",
          "name": "owner",
          "type": "address"
        },
        {
          "indexed": true,
          "internalType": "address",
          "name": "spender",
          "type": "address"
        },
        {
          "indexed": false,
          "internalType": "uint256",
          "name": "value",
          "type": "uint256"
        }
      ],
      "name": "Approval",
      "type": "event"
    },
    {
      "anonymous": false,
      "inputs": [
        {
          "indexed": true,
          "internalType": "address",
          "name": "previousOwner",
          "type": "address"
        },
        {
          "indexed": true,
          "internalType": "address",
          "name": "newOwner",
          "type": "address"
        }
      ],
      "name": "OwnershipTransferred",
      "type": "event"
    },
    {
      "anonymous": false,
      "inputs": [
        {
          "indexed": true,
          "internalType": "address",
          "name": "from",
          "type": "address"
        },
        {
          "indexed": true,
          "internalType": "address",
          "name": "to",
          "type": "address"
        },
        {
          "indexed": false,
          "internalType": "uint256",
          "name": "value",
          "type": "uint256"
        }
      ],
      "name": "Transfer",
      "type": "event"
    },
    {
      "inputs": [],
      "name": "COST_OF_POST",
      "outputs": [
        {
          "internalType": "uint256",
          "name": "",
          "type": "uint256"
        }
      ],
      "stateMutability": "view",
      "type": "function"
    },
    {
      "inputs": [
        {
          "internalType": "uint32",
          "name": "unstakeDelaySec",
          "type": "uint32"
        }
      ],
      "name": "addStake",
      "outputs": [],
      "stateMutability": "payable",
      "type": "function"
    },
    {
      "inputs": [
        {
          "internalType": "address",
          "name": "owner",
          "type": "address"
        },
        {
          "internalType": "address",
          "name": "spender",
          "type": "address"
        }
      ],
      "name": "allowance",
      "outputs": [
        {
          "internalType": "uint256",
          "name": "",
          "type": "uint256"
        }
      ],
      "stateMutability": "view",
      "type": "function"
    },
    {
      "inputs": [
        {
          "internalType": "address",
          "name": "spender",
          "type": "address"
        },
        {
          "internalType": "uint256",
          "name": "amount",
          "type": "uint256"
        }
      ],
      "name": "approve",
      "outputs": [
        {
          "internalType": "bool",
          "name": "",
          "type": "bool"
        }
      ],
      "stateMutability": "nonpayable",
      "type": "function"
    },
    {
      "inputs": [
        {
          "internalType": "address",
          "name": "account",
          "type": "address"
        }
      ],
      "name": "balanceOf",
      "outputs": [
        {
          "internalType": "uint256",
          "name": "",
          "type": "uint256"
        }
      ],
      "stateMutability": "view",
      "type": "function"
    },
    {
      "inputs": [],
      "name": "decimals",
      "outputs": [
        {
          "internalType": "uint8",
          "name": "",
          "type": "uint8"
        }
      ],
      "stateMutability": "view",
      "type": "function"
    },
    {
      "inputs": [
        {
          "internalType": "address",
          "name": "spender",
          "type": "address"
        },
        {
          "internalType": "uint256",
          "name": "subtractedValue",
          "type": "uint256"
        }
      ],
      "name": "decreaseAllowance",
      "outputs": [
        {
          "internalType": "bool",
          "name": "",
          "type": "bool"
        }
      ],
      "stateMutability": "nonpayable",
      "type": "function"
    },
    {
      "inputs": [],
      "name": "deposit",
      "outputs": [],
      "stateMutability": "payable",
      "type": "function"
    },
    {
      "inputs": [],
      "name": "entryPoint",
      "outputs": [
        {
          "internalType": "contract IEntryPoint",
          "name": "",
          "type": "address"
        }
      ],
      "stateMutability": "view",
      "type": "function"
    },
    {
      "inputs": [],
      "name": "getDeposit",
      "outputs": [
        {
          "internalType": "uint256",
          "name": "",
          "type": "uint256"
        }
      ],
      "stateMutability": "view",
      "type": "function"
    },
    {
      "inputs": [
        {
          "internalType": "address",
          "name": "target",
          "type": "address"
        }
      ],
      "name": "getLevelAndRate",
      "outputs": [
        {
          "internalType": "uint256",
          "name": "level",
          "type": "uint256"
        },
        {
          "internalType": "uint256",
          "name": "rate",
          "type": "uint256"
        }
      ],
      "stateMutability": "view",
      "type": "function"
    },
    {
      "inputs": [
        {
          "internalType": "address",
          "name": "spender",
          "type": "address"
        },
        {
          "internalType": "uint256",
          "name": "addedValue",
          "type": "uint256"
        }
      ],
      "name": "increaseAllowance",
      "outputs": [
        {
          "internalType": "bool",
          "name": "",
          "type": "bool"
        }
      ],
      "stateMutability": "nonpayable",
      "type": "function"
    },
    {
      "inputs": [
        {
          "internalType": "address",
          "name": "recipient",
          "type": "address"
        },
        {
          "internalType": "uint256",
          "name": "amount",
          "type": "uint256"
        }
      ],
      "name": "mintTokens",
      "outputs": [],
      "stateMutability": "nonpayable",
      "type": "function"
    },
    {
      "inputs": [],
      "name": "name",
      "outputs": [
        {
          "internalType": "string",
          "name": "",
          "type": "string"
        }
      ],
      "stateMutability": "view",
      "type": "function"
    },
    {
      "inputs": [],
      "name": "owner",
      "outputs": [
        {
          "internalType": "address",
          "name": "",
          "type": "address"
        }
      ],
      "stateMutability": "view",
      "type": "function"
    },
    {
      "inputs": [
        {
          "internalType": "enum IPaymaster.PostOpMode",
          "name": "mode",
          "type": "uint8"
        },
        {
          "internalType": "bytes",
          "name": "context",
          "type": "bytes"
        },
        {
          "internalType": "uint256",
          "name": "actualGasCost",
          "type": "uint256"
        }
      ],
      "name": "postOp",
      "outputs": [],
      "stateMutability": "nonpayable",
      "type": "function"
    },
    {
      "inputs": [],
      "name": "renounceOwnership",
      "outputs": [],
      "stateMutability": "nonpayable",
      "type": "function"
    },
    {
      "inputs": [],
      "name": "symbol",
      "outputs": [
        {
          "internalType": "string",
          "name": "",
          "type": "string"
        }
      ],
      "stateMutability": "view",
      "type": "function"
    },
    {
      "inputs": [],
      "name": "theFactory",
      "outputs": [
        {
          "internalType": "address",
          "name": "",
          "type": "address"
        }
      ],
      "stateMutability": "view",
      "type": "function"
    },
    {
      "inputs": [],
      "name": "totalSupply",
      "outputs": [
        {
          "internalType": "uint256",
          "name": "",
          "type": "uint256"
        }
      ],
      "stateMutability": "view",
      "type": "function"
    },
    {
      "inputs": [
        {
          "internalType": "address",
          "name": "to",
          "type": "address"
        },
        {
          "internalType": "uint256",
          "name": "amount",
          "type": "uint256"
        }
      ],
      "name": "transfer",
      "outputs": [
        {
          "internalType": "bool",
          "name": "",
          "type": "bool"
        }
      ],
      "stateMutability": "nonpayable",
      "type": "function"
    },
    {
      "inputs": [
        {
          "internalType": "address",
          "name": "from",
          "type": "address"
        },
        {
          "internalType": "address",
          "name": "to",
          "type": "address"
        },
        {
          "internalType": "uint256",
          "name": "amount",
          "type": "uint256"
        }
      ],
      "name": "transferFrom",
      "outputs": [
        {
          "internalType": "bool",
          "name": "",
          "type": "bool"
        }
      ],
      "stateMutability": "nonpayable",
      "type": "function"
    },
    {
      "inputs": [
        {
          "internalType": "address",
          "name": "newOwner",
          "type": "address"
        }
      ],
      "name": "transferOwnership",
      "outputs": [],
      "stateMutability": "nonpayable",
      "type": "function"
    },
    {
      "inputs": [],
      "name": "unlockStake",
      "outputs": [],
      "stateMutability": "nonpayable",
      "type": "function"
    },
    {
      "inputs": [
        {
          "components": [
            {
              "internalType": "address",
              "name": "sender",
              "type": "address"
            },
            {
              "internalType": "uint256",
              "name": "nonce",
              "type": "uint256"
            },
            {
              "internalType": "bytes",
              "name": "initCode",
              "type": "bytes"
            },
            {
              "internalType": "bytes",
              "name": "callData",
              "type": "bytes"
            },
            {
              "internalType": "uint256",
              "name": "callGasLimit",
              "type": "uint256"
            },
            {
              "internalType": "uint256",
              "name": "verificationGasLimit",
              "type": "uint256"
            },
            {
              "internalType": "uint256",
              "name": "preVerificationGas",
              "type": "uint256"
            },
            {
              "internalType": "uint256",
              "name": "maxFeePerGas",
              "type": "uint256"
            },
            {
              "internalType": "uint256",
              "name": "maxPriorityFeePerGas",
              "type": "uint256"
            },
            {
              "internalType": "bytes",
              "name": "paymasterAndData",
              "type": "bytes"
            },
            {
              "internalType": "bytes",
              "name": "signature",
              "type": "bytes"
            }
          ],
          "internalType": "struct UserOperation",
          "name": "userOp",
          "type": "tuple"
        },
        {
          "internalType": "bytes32",
          "name": "userOpHash",
          "type": "bytes32"
        },
        {
          "internalType": "uint256",
          "name": "maxCost",
          "type": "uint256"
        }
      ],
      "name": "validatePaymasterUserOp",
      "outputs": [
        {
          "internalType": "bytes",
          "name": "context",
          "type": "bytes"
        },
        {
          "internalType": "uint256",
          "name": "validationData",
          "type": "uint256"
        }
      ],
      "stateMutability": "nonpayable",
      "type": "function"
    },
    {
      "inputs": [
        {
          "internalType": "address payable",
          "name": "withdrawAddress",
          "type": "address"
        }
      ],
      "name": "withdrawStake",
      "outputs": [],
      "stateMutability": "nonpayable",
      "type": "function"
    },
    {
      "inputs": [
        {
          "internalType": "address payable",
          "name": "withdrawAddress",
          "type": "address"
        },
        {
          "internalType": "uint256",
          "name": "amount",
          "type": "uint256"
        }
      ],
      "name": "withdrawTo",
      "outputs": [],
      "stateMutability": "nonpayable",
      "type": "function"
    }
  ],
  "bytecode": "0x60c06040523480156200001157600080fd5b5060405162001e0738038062001e07833981016040819052620000349162000334565b8480856200004233620000ad565b6001600160a01b031660805260046200005c8382620004db565b5060056200006b8282620004db565b5050506001600160a01b03861660a05262000088306001620000fd565b620000973033600019620001c6565b60069290925560075560085550620005cf915050565b600080546001600160a01b038381166001600160a01b0319831681178455604051919092169283917f8be0079c531659141344cd1fd0a4f28419497f9722a3daafe3b4186f6b6457e09190a35050565b6001600160a01b038216620001595760405162461bcd60e51b815260206004820152601f60248201527f45524332303a206d696e7420746f20746865207a65726f20616464726573730060448201526064015b60405180910390fd5b80600360008282546200016d9190620005a7565b90915550506001600160a01b0382166000818152600160209081526040808320805486019055518481527fddf252ad1be2c89b69c2b068fc378daa952ba7f163c4a11628f55a4df523b3ef910160405180910390a35050565b6001600160a01b0383166200022a5760405162461bcd60e51b8152602060048201526024808201527f45524332303a20617070726f76652066726f6d20746865207a65726f206164646044820152637265737360e01b606482015260840162000150565b6001600160a01b0382166200028d5760405162461bcd60e51b815260206004820152602260248201527f45524332303a20617070726f766520746f20746865207a65726f206164647265604482015261737360f01b606482015260840162000150565b6001600160a01b0383811660008181526002602090815260408083209487168084529482529182902085905590518481527f8c5be1e5ebec7d5bd14f71427d1e84f3dd0314c0f7b2291e5b200ac8c7c3b925910160405180910390a3505050565b505050565b6001600160a01b03811681146200030957600080fd5b50565b634e487b7160e01b600052604160045260246000fd5b80516200032f81620002f3565b919050565b60008060008060008060c087890312156200034e57600080fd5b86516200035b81620002f3565b602088810151919750906001600160401b03808211156200037b57600080fd5b818a0191508a601f8301126200039057600080fd5b815181811115620003a557620003a56200030c565b604051601f8201601f19908116603f01168101908382118183101715620003d057620003d06200030c565b816040528281528d86848701011115620003e957600080fd5b600093505b828410156200040d5784840186015181850187015292850192620003ee565b6000868483010152809a505050505050506200042c6040880162000322565b9350606087015192506080870151915060a087015190509295509295509295565b600181811c908216806200046257607f821691505b6020821081036200048357634e487b7160e01b600052602260045260246000fd5b50919050565b601f821115620002ee57600081815260208120601f850160051c81016020861015620004b25750805b601f850160051c820191505b81811015620004d357828155600101620004be565b505050505050565b81516001600160401b03811115620004f757620004f76200030c565b6200050f816200050884546200044d565b8462000489565b602080601f8311600181146200054757600084156200052e5750858301515b600019600386901b1c1916600185901b178555620004d3565b600085815260208120601f198616915b82811015620005785788860151825594840194600190910190840162000557565b5085821015620005975787850151600019600388901b60f8161c191681555b5050505050600190811b01905550565b80820180821115620005c957634e487b7160e01b600052601160045260246000fd5b92915050565b60805160a0516117da6200062d6000396000818161039b015261138201526000818161042f01528181610553015281816106960152818161083b015281816108cf01528181610946015281816109d30152610eba01526117da6000f3fe60806040526004361061019c5760003560e01c806395d89b41116100ec578063c23a5cea1161008a578063dd62ed3e11610064578063dd62ed3e146104a3578063f0dda65c146104c3578063f2fde38b146104e3578063f465c77e1461050357600080fd5b8063c23a5cea14610466578063c399ec8814610486578063d0e30db01461049b57600080fd5b8063a9059cbb116100c6578063a9059cbb146103dd578063a9a23409146103fd578063b0d691fe1461041d578063bb9fe6bf1461045157600080fd5b806395d89b41146103745780639f5ca22114610389578063a457c2d7146103bd57600080fd5b8063313ce5671161015957806370a082311161013357806370a08231146102e1578063715018a614610317578063796d43711461032c5780638da5cb5b1461034257600080fd5b8063313ce56714610270578063395093511461028c5780635545a674146102ac57600080fd5b80630396cb60146101a157806306fdde03146101b6578063095ea7b3146101e157806318160ddd14610211578063205c28781461023057806323b872dd14610250575b600080fd5b6101b46101af3660046113fe565b610531565b005b3480156101c257600080fd5b506101cb6105bc565b6040516101d89190611471565b60405180910390f35b3480156101ed57600080fd5b506102016101fc366004611499565b61064e565b60405190151581526020016101d8565b34801561021d57600080fd5b506003545b6040519081526020016101d8565b34801561023c57600080fd5b506101b461024b366004611499565b610668565b34801561025c57600080fd5b5061020161026b3660046114c5565b6106da565b34801561027c57600080fd5b50604051601281526020016101d8565b34801561029857600080fd5b506102016102a7366004611499565b6106fe565b3480156102b857600080fd5b506102cc6102c7366004611506565b610720565b604080519283526020830191909152016101d8565b3480156102ed57600080fd5b506102226102fc366004611506565b6001600160a01b031660009081526001602052604090205490565b34801561032357600080fd5b506101b4610766565b34801561033857600080fd5b50610222613a9881565b34801561034e57600080fd5b506000546001600160a01b03165b6040516001600160a01b0390911681526020016101d8565b34801561038057600080fd5b506101cb61077a565b34801561039557600080fd5b5061035c7f000000000000000000000000000000000000000000000000000000000000000081565b3480156103c957600080fd5b506102016103d8366004611499565b610789565b3480156103e957600080fd5b506102016103f8366004611499565b610809565b34801561040957600080fd5b506101b4610418366004611523565b610817565b34801561042957600080fd5b5061035c7f000000000000000000000000000000000000000000000000000000000000000081565b34801561045d57600080fd5b506101b4610831565b34801561047257600080fd5b506101b4610481366004611506565b6108a8565b34801561049257600080fd5b5061022261092e565b6101b46109be565b3480156104af57600080fd5b506102226104be3660046115b2565b610a20565b3480156104cf57600080fd5b506101b46104de366004611499565b610a4b565b3480156104ef57600080fd5b506101b46104fe366004611506565b610a61565b34801561050f57600080fd5b5061052361051e3660046115eb565b610a9f565b6040516101d892919061163f565b610539610ac2565b604051621cb65b60e51b815263ffffffff821660048201527f00000000000000000000000000000000000000000000000000000000000000006001600160a01b031690630396cb609034906024016000604051808303818588803b1580156105a057600080fd5b505af11580156105b4573d6000803e3d6000fd5b505050505050565b6060600480546105cb90611661565b80601f01602080910402602001604051908101604052809291908181526020018280546105f790611661565b80156106445780601f1061061957610100808354040283529160200191610644565b820191906000526020600020905b81548152906001019060200180831161062757829003601f168201915b5050505050905090565b60003361065c818585610b1c565b60019150505b92915050565b610670610ac2565b60405163040b850f60e31b81526001600160a01b038381166004830152602482018390527f0000000000000000000000000000000000000000000000000000000000000000169063205c287890604401600060405180830381600087803b1580156105a057600080fd5b6000336106e8858285610c40565b6106f3858585610cb4565b506001949350505050565b60003361065c8185856107118383610a20565b61071b919061169b565b610b1c565b6001600160a01b03811660009081526009602052604081205490600182900361074c5750600754915091565b8160020361075d5750600854915091565b50600654915091565b61076e610ac2565b6107786000610e5f565b565b6060600580546105cb90611661565b600033816107978286610a20565b9050838110156107fc5760405162461bcd60e51b815260206004820152602560248201527f45524332303a2064656372656173656420616c6c6f77616e63652062656c6f77604482015264207a65726f60d81b60648201526084015b60405180910390fd5b6106f38286868403610b1c565b60003361065c818585610cb4565b61081f610eaf565b61082b84848484610f1f565b50505050565b610839610ac2565b7f00000000000000000000000000000000000000000000000000000000000000006001600160a01b031663bb9fe6bf6040518163ffffffff1660e01b8152600401600060405180830381600087803b15801561089457600080fd5b505af115801561082b573d6000803e3d6000fd5b6108b0610ac2565b60405163611d2e7560e11b81526001600160a01b0382811660048301527f0000000000000000000000000000000000000000000000000000000000000000169063c23a5cea90602401600060405180830381600087803b15801561091357600080fd5b505af1158015610927573d6000803e3d6000fd5b5050505050565b6040516370a0823160e01b81523060048201526000907f00000000000000000000000000000000000000000000000000000000000000006001600160a01b0316906370a0823190602401602060405180830381865afa158015610995573d6000803e3d6000fd5b505050506040513d601f19601f820116820180604052508101906109b991906116bc565b905090565b60405163b760faf960e01b81523060048201527f00000000000000000000000000000000000000000000000000000000000000006001600160a01b03169063b760faf99034906024016000604051808303818588803b15801561091357600080fd5b6001600160a01b03918216600090815260026020908152604080832093909416825291909152205490565b610a53610ac2565b610a5d8282610ff7565b5050565b610a69610ac2565b610a8630610a7f6000546001600160a01b031690565b6000610b1c565b610a8f816110b8565b610a9c3082600019610b1c565b50565b60606000610aab610eaf565b610ab685858561112e565b91509150935093915050565b6000546001600160a01b031633146107785760405162461bcd60e51b815260206004820181905260248201527f4f776e61626c653a2063616c6c6572206973206e6f7420746865206f776e657260448201526064016107f3565b6001600160a01b038316610b7e5760405162461bcd60e51b8152602060048201526024808201527f45524332303a20617070726f76652066726f6d20746865207a65726f206164646044820152637265737360e01b60648201526084016107f3565b6001600160a01b038216610bdf5760405162461bcd60e51b815260206004820152602260248201527f45524332303a20617070726f766520746f20746865207a65726f206164647265604482015261737360f01b60648201526084016107f3565b6001600160a01b0383811660008181526002602090815260408083209487168084529482529182902085905590518481527f8c5be1e5ebec7d5bd14f71427d1e84f3dd0314c0f7b2291e5b200ac8c7c3b925910160405180910390a3505050565b6000610c4c8484610a20565b9050600019811461082b5781811015610ca75760405162461bcd60e51b815260206004820152601d60248201527f45524332303a20696e73756666696369656e7420616c6c6f77616e636500000060448201526064016107f3565b61082b8484848403610b1c565b6001600160a01b038316610d185760405162461bcd60e51b815260206004820152602560248201527f45524332303a207472616e736665722066726f6d20746865207a65726f206164604482015264647265737360d81b60648201526084016107f3565b6001600160a01b038216610d7a5760405162461bcd60e51b815260206004820152602360248201527f45524332303a207472616e7366657220746f20746865207a65726f206164647260448201526265737360e81b60648201526084016107f3565b6001600160a01b03831660009081526001602052604090205481811015610df25760405162461bcd60e51b815260206004820152602660248201527f45524332303a207472616e7366657220616d6f756e7420657863656564732062604482015265616c616e636560d01b60648201526084016107f3565b6001600160a01b0380851660008181526001602052604080822086860390559286168082529083902080548601905591517fddf252ad1be2c89b69c2b068fc378daa952ba7f163c4a11628f55a4df523b3ef90610e529086815260200190565b60405180910390a361082b565b600080546001600160a01b038381166001600160a01b0319831681178455604051919092169283917f8be0079c531659141344cd1fd0a4f28419497f9722a3daafe3b4186f6b6457e09190a35050565b336001600160a01b037f000000000000000000000000000000000000000000000000000000000000000016146107785760405162461bcd60e51b815260206004820152601560248201527414d95b99195c881b9bdd08115b9d1c9e541bda5b9d605a1b60448201526064016107f3565b6000610f2d83850185611506565b90506000610f4682610f41613a988661169b565b6112de565b9050610f53823083610cb4565b6001600160a01b038216600090815260096020526040902054600103610f94576001600160a01b0382166000908152600960205260409020600290556105b4565b6001600160a01b038216600090815260096020526040902054600203610fd5576001600160a01b0382166000908152600960205260409020600290556105b4565b506001600160a01b031660009081526009602052604090206001905550505050565b6001600160a01b03821661104d5760405162461bcd60e51b815260206004820152601f60248201527f45524332303a206d696e7420746f20746865207a65726f20616464726573730060448201526064016107f3565b806003600082825461105f919061169b565b90915550506001600160a01b0382166000818152600160209081526040808320805486019055518481527fddf252ad1be2c89b69c2b068fc378daa952ba7f163c4a11628f55a4df523b3ef910160405180910390a35050565b6110c0610ac2565b6001600160a01b0381166111255760405162461bcd60e51b815260206004820152602660248201527f4f776e61626c653a206e6577206f776e657220697320746865207a65726f206160448201526564647265737360d01b60648201526084016107f3565b610a9c81610e5f565b60606000806111496111436020880188611506565b856112de565b9050613a988660a00135116111af5760405162461bcd60e51b815260206004820152602660248201527f546f6b656e5061796d61737465723a2067617320746f6f206c6f7720666f72206044820152650706f73744f760d41b60648201526084016107f3565b6111bc60408701876116d5565b159050611240576111cc8661134c565b806111dd6102fc6020890189611506565b101561123b5760405162461bcd60e51b815260206004820152602760248201527f546f6b656e5061796d61737465723a206e6f2062616c616e636520287072652d6044820152666372656174652960c81b60648201526084016107f3565b61129f565b806112516102fc6020890189611506565b101561129f5760405162461bcd60e51b815260206004820152601a60248201527f546f6b656e5061796d61737465723a206e6f2062616c616e636500000000000060448201526064016107f3565b6112ac6020870187611506565b604080516001600160a01b0390921660208301520160408051601f198184030181529190529660009650945050505050565b6001600160a01b0382166000908152600960205260408120546001036113125760075461130b9083611723565b9050610662565b6001600160a01b03831660009081526009602052604090205460020361133f5760085461130b9083611723565b60065461130b9083611723565b600061135b60408301836116d5565b61136a91601491600091611745565b6113739161176f565b60601c90506001600160a01b037f0000000000000000000000000000000000000000000000000000000000000000168114610a5d5760405162461bcd60e51b815260206004820152602560248201527f546f6b656e5061796d61737465723a2077726f6e67206163636f756e7420666160448201526463746f727960d81b60648201526084016107f3565b60006020828403121561141057600080fd5b813563ffffffff8116811461142457600080fd5b9392505050565b6000815180845260005b8181101561145157602081850181015186830182015201611435565b506000602082860101526020601f19601f83011685010191505092915050565b602081526000611424602083018461142b565b6001600160a01b0381168114610a9c57600080fd5b600080604083850312156114ac57600080fd5b82356114b781611484565b946020939093013593505050565b6000806000606084860312156114da57600080fd5b83356114e581611484565b925060208401356114f581611484565b929592945050506040919091013590565b60006020828403121561151857600080fd5b813561142481611484565b6000806000806060858703121561153957600080fd5b84356003811061154857600080fd5b9350602085013567ffffffffffffffff8082111561156557600080fd5b818701915087601f83011261157957600080fd5b81358181111561158857600080fd5b88602082850101111561159a57600080fd5b95986020929092019750949560400135945092505050565b600080604083850312156115c557600080fd5b82356115d081611484565b915060208301356115e081611484565b809150509250929050565b60008060006060848603121561160057600080fd5b833567ffffffffffffffff81111561161757600080fd5b8401610160818703121561162a57600080fd5b95602085013595506040909401359392505050565b604081526000611652604083018561142b565b90508260208301529392505050565b600181811c9082168061167557607f821691505b60208210810361169557634e487b7160e01b600052602260045260246000fd5b50919050565b8082018082111561066257634e487b7160e01b600052601160045260246000fd5b6000602082840312156116ce57600080fd5b5051919050565b6000808335601e198436030181126116ec57600080fd5b83018035915067ffffffffffffffff82111561170757600080fd5b60200191503681900382131561171c57600080fd5b9250929050565b60008261174057634e487b7160e01b600052601260045260246000fd5b500490565b6000808585111561175557600080fd5b8386111561176257600080fd5b5050820193919092039150565b6bffffffffffffffffffffffff19813581811691601485101561179c5780818660140360031b1b83161692505b50509291505056fea26469706673582212207420fadb9b9a954230d2612d147ed765db16cf86533f667c9b705701961c07c364736f6c63430008110033",
  "linkReferences": {},
  "deployedLinkReferences": {}
}